:100000000C9434000C943E000C943E000C943E0082
:100010000C943E000C943E000C943E000C943E0068
:100020000C943E000C943E000C943E000C943E0058
:100030000C943E000C943E000C943E000C943E0048
:100040000C943E000C943E000C943E000C943E0038
:100050000C943E000C943E000C943E000C943E0028
:100060000C943E000C943E0011241FBECFEFD8E04C
:10007000DEBFCDBF0E947F000C949C000C9400005A
:100080008A30910520F015B888E18BB90895845B1A
:100090009F4FFC010C9496005D00610066006A00B1
:1000A0006E00720076007A005600590015B81BB831
:1000B000089515B880E48BB9089581E085B91BB81F
:1000C000089581E085B984EE8BB9089515B880E96B
:1000D0008BB9089515B880EC8BB9089515B884E6EE
:1000E0008BB9089515B888E48BB9089515B888E0E0
:1000F0008BB9089581E085B980EE8BB908958AB1F6
:100100008C6F8AB9209AD0E0C0E0CE010E944000F6
:100110002FEF83ED90E3215080409040E1F700C045
:1001200000002196CA30D10581F7EDCFEE0FFF1FF9
:0C0130000590F491E02D0994F894FFCFA5
:00000001FF
