:100000000C9434000C9449000C9449000C94490061
:100010000C9449000C9449000C9449000C9449003C
:100020000C9449000C9449000C9449000C9449002C
:100030000C9449000C9449000C9449000C9449001C
:100040000C9449000C9449000C9449000C9449000C
:100050000C9449000C9449000C9449000C944900FC
:100060000C9449000C94490011241FBECFEFD8E036
:10007000DEBFCDBF11E0A0E0B1E0E4E8F1E002C0F6
:1000800005900D92A431B107D9F70E948A000C9413
:10009000C0000C9400008A30910520F015B888E16A
:1000A0008BB90895895A9F4FFC010C94BA006800DF
:1000B0006C007100750079007D0081008500610091
:1000C000640015B81BB8089515B880E48BB908957D
:1000D00081E085B91BB8089581E085B984EE8BB9BC
:1000E000089515B880E98BB9089515B880EC8BB9DF
:1000F000089515B884E68BB9089515B888E48BB9CE
:10010000089515B888E08BB9089581E085B980EE2F
:100110008BB90895CF93DF93CDB7DEB764970FB651
:10012000F894DEBF0FBECDBF84E1E0E0F1E0DE0178
:10013000119601900D928A95E1F78AB18C6F8AB978
:10014000209ACE0145967C018E010F5F1F4FF8016A
:10015000819191918F010E944B00FFEF23ED80E38D
:10016000F15020408040E1F700C000000E151F054F
:1001700071F7EACFEE0FFF1F0590F491E02D09947F
:04018000F894FFCF21
:10018400000001000200030004000500060007004F
:040194000800090056
:00000001FF
